{
  "_format": "hh-sol-artifact-1",
  "contractName": "HogwartsNFT",
  "sourceName": "contracts/HogwartsNFT.sol",
  "abi": [
    {
      "inputs": [],
      "stateMutability": "nonpayable",
      "type": "constructor"
    },
    {
      "inputs": [
        {
          "internalType": "address",
          "name": "sender",
          "type": "address"
        },
        {
          "internalType": "uint256",
          "name": "tokenId",
          "type": "uint256"
        },
        {
          "internalType": "address",
          "name": "owner",
          "type": "address"
        }
      ],
      "name": "ERC721IncorrectOwner",
      "type": "error"
    },
    {
      "inputs": [
        {
          "internalType": "address",
          "name": "operator",
          "type": "address"
        },
        {
          "internalType": "uint256",
          "name": "tokenId",
          "type": "uint256"
        }
      ],
      "name": "ERC721InsufficientApproval",
      "type": "error"
    },
    {
      "inputs": [
        {
          "internalType": "address",
          "name": "approver",
          "type": "address"
        }
      ],
      "name": "ERC721InvalidApprover",
      "type": "error"
    },
    {
      "inputs": [
        {
          "internalType": "address",
          "name": "operator",
          "type": "address"
        }
      ],
      "name": "ERC721InvalidOperator",
      "type": "error"
    },
    {
      "inputs": [
        {
          "internalType": "address",
          "name": "owner",
          "type": "address"
        }
      ],
      "name": "ERC721InvalidOwner",
      "type": "error"
    },
    {
      "inputs": [
        {
          "internalType": "address",
          "name": "receiver",
          "type": "address"
        }
      ],
      "name": "ERC721InvalidReceiver",
      "type": "error"
    },
    {
      "inputs": [
        {
          "internalType": "address",
          "name": "sender",
          "type": "address"
        }
      ],
      "name": "ERC721InvalidSender",
      "type": "error"
    },
    {
      "inputs": [
        {
          "internalType": "uint256",
          "name": "tokenId",
          "type": "uint256"
        }
      ],
      "name": "ERC721NonexistentToken",
      "type": "error"
    },
    {
      "inputs": [
        {
          "internalType": "address",
          "name": "owner",
          "type": "address"
        }
      ],
      "name": "OwnableInvalidOwner",
      "type": "error"
    },
    {
      "inputs": [
        {
          "internalType": "address",
          "name": "account",
          "type": "address"
        }
      ],
      "name": "OwnableUnauthorizedAccount",
      "type": "error"
    },
    {
      "anonymous": false,
      "inputs": [
        {
          "indexed": true,
          "internalType": "address",
          "name": "owner",
          "type": "address"
        },
        {
          "indexed": true,
          "internalType": "address",
          "name": "approved",
          "type": "address"
        },
        {
          "indexed": true,
          "internalType": "uint256",
          "name": "tokenId",
          "type": "uint256"
        }
      ],
      "name": "Approval",
      "type": "event"
    },
    {
      "anonymous": false,
      "inputs": [
        {
          "indexed": true,
          "internalType": "address",
          "name": "owner",
          "type": "address"
        },
        {
          "indexed": true,
          "internalType": "address",
          "name": "operator",
          "type": "address"
        },
        {
          "indexed": false,
          "internalType": "bool",
          "name": "approved",
          "type": "bool"
        }
      ],
      "name": "ApprovalForAll",
      "type": "event"
    },
    {
      "anonymous": false,
      "inputs": [
        {
          "indexed": false,
          "internalType": "uint256",
          "name": "_fromTokenId",
          "type": "uint256"
        },
        {
          "indexed": false,
          "internalType": "uint256",
          "name": "_toTokenId",
          "type": "uint256"
        }
      ],
      "name": "BatchMetadataUpdate",
      "type": "event"
    },
    {
      "anonymous": false,
      "inputs": [
        {
          "indexed": false,
          "internalType": "uint256",
          "name": "_tokenId",
          "type": "uint256"
        }
      ],
      "name": "MetadataUpdate",
      "type": "event"
    },
    {
      "anonymous": false,
      "inputs": [
        {
          "indexed": false,
          "internalType": "uint256",
          "name": "house",
          "type": "uint256"
        },
        {
          "indexed": false,
          "internalType": "address",
          "name": "minter",
          "type": "address"
        },
        {
          "indexed": false,
          "internalType": "string",
          "name": "name",
          "type": "string"
        }
      ],
      "name": "NftMinted",
      "type": "event"
    },
    {
      "anonymous": false,
      "inputs": [
        {
          "indexed": true,
          "internalType": "address",
          "name": "previousOwner",
          "type": "address"
        },
        {
          "indexed": true,
          "internalType": "address",
          "name": "newOwner",
          "type": "address"
        }
      ],
      "name": "OwnershipTransferred",
      "type": "event"
    },
    {
      "anonymous": false,
      "inputs": [
        {
          "indexed": true,
          "internalType": "address",
          "name": "from",
          "type": "address"
        },
        {
          "indexed": true,
          "internalType": "address",
          "name": "to",
          "type": "address"
        },
        {
          "indexed": true,
          "internalType": "uint256",
          "name": "tokenId",
          "type": "uint256"
        }
      ],
      "name": "Transfer",
      "type": "event"
    },
    {
      "inputs": [
        {
          "internalType": "address",
          "name": "to",
          "type": "address"
        },
        {
          "internalType": "uint256",
          "name": "tokenId",
          "type": "uint256"
        }
      ],
      "name": "approve",
      "outputs": [],
      "stateMutability": "nonpayable",
      "type": "function"
    },
    {
      "inputs": [
        {
          "internalType": "address",
          "name": "owner",
          "type": "address"
        }
      ],
      "name": "balanceOf",
      "outputs": [
        {
          "internalType": "uint256",
          "name": "",
          "type": "uint256"
        }
      ],
      "stateMutability": "view",
      "type": "function"
    },
    {
      "inputs": [
        {
          "internalType": "uint256",
          "name": "tokenId",
          "type": "uint256"
        }
      ],
      "name": "getApproved",
      "outputs": [
        {
          "internalType": "address",
          "name": "",
          "type": "address"
        }
      ],
      "stateMutability": "view",
      "type": "function"
    },
    {
      "inputs": [
        {
          "internalType": "address",
          "name": "_user",
          "type": "address"
        }
      ],
      "name": "getHouseIndex",
      "outputs": [
        {
          "internalType": "uint256",
          "name": "",
          "type": "uint256"
        }
      ],
      "stateMutability": "view",
      "type": "function"
    },
    {
      "inputs": [
        {
          "internalType": "address",
          "name": "",
          "type": "address"
        }
      ],
      "name": "hasMinted",
      "outputs": [
        {
          "internalType": "bool",
          "name": "",
          "type": "bool"
        }
      ],
      "stateMutability": "view",
      "type": "function"
    },
    {
      "inputs": [
        {
          "internalType": "address",
          "name": "_user",
          "type": "address"
        }
      ],
      "name": "hasMintedNFT",
      "outputs": [
        {
          "internalType": "bool",
          "name": "",
          "type": "bool"
        }
      ],
      "stateMutability": "view",
      "type": "function"
    },
    {
      "inputs": [
        {
          "internalType": "address",
          "name": "owner",
          "type": "address"
        },
        {
          "internalType": "address",
          "name": "operator",
          "type": "address"
        }
      ],
      "name": "isApprovedForAll",
      "outputs": [
        {
          "internalType": "bool",
          "name": "",
          "type": "bool"
        }
      ],
      "stateMutability": "view",
      "type": "function"
    },
    {
      "inputs": [
        {
          "internalType": "address",
          "name": "recipient",
          "type": "address"
        },
        {
          "internalType": "uint256",
          "name": "house",
          "type": "uint256"
        },
        {
          "internalType": "string",
          "name": "name",
          "type": "string"
        }
      ],
      "name": "mintNFT",
      "outputs": [],
      "stateMutability": "nonpayable",
      "type": "function"
    },
    {
      "inputs": [],
      "name": "name",
      "outputs": [
        {
          "internalType": "string",
          "name": "",
          "type": "string"
        }
      ],
      "stateMutability": "view",
      "type": "function"
    },
    {
      "inputs": [],
      "name": "owner",
      "outputs": [
        {
          "internalType": "address",
          "name": "",
          "type": "address"
        }
      ],
      "stateMutability": "view",
      "type": "function"
    },
    {
      "inputs": [
        {
          "internalType": "uint256",
          "name": "tokenId",
          "type": "uint256"
        }
      ],
      "name": "ownerOf",
      "outputs": [
        {
          "internalType": "address",
          "name": "",
          "type": "address"
        }
      ],
      "stateMutability": "view",
      "type": "function"
    },
    {
      "inputs": [],
      "name": "renounceOwnership",
      "outputs": [],
      "stateMutability": "nonpayable",
      "type": "function"
    },
    {
      "inputs": [
        {
          "internalType": "address",
          "name": "",
          "type": "address"
        }
      ],
      "name": "s_addressToHouse",
      "outputs": [
        {
          "internalType": "uint256",
          "name": "",
          "type": "uint256"
        }
      ],
      "stateMutability": "view",
      "type": "function"
    },
    {
      "inputs": [
        {
          "internalType": "address",
          "name": "",
          "type": "address"
        }
      ],
      "name": "s_addressToName",
      "outputs": [
        {
          "internalType": "string",
          "name": "",
          "type": "string"
        }
      ],
      "stateMutability": "view",
      "type": "function"
    },
    {
      "inputs": [
        {
          "internalType": "uint256",
          "name": "",
          "type": "uint256"
        }
      ],
      "name": "s_requestIdToSender",
      "outputs": [
        {
          "internalType": "address",
          "name": "",
          "type": "address"
        }
      ],
      "stateMutability": "view",
      "type": "function"
    },
    {
      "inputs": [
        {
          "internalType": "address",
          "name": "from",
          "type": "address"
        },
        {
          "internalType": "address",
          "name": "to",
          "type": "address"
        },
        {
          "internalType": "uint256",
          "name": "tokenId",
          "type": "uint256"
        }
      ],
      "name": "safeTransferFrom",
      "outputs": [],
      "stateMutability": "nonpayable",
      "type": "function"
    },
    {
      "inputs": [
        {
          "internalType": "address",
          "name": "from",
          "type": "address"
        },
        {
          "internalType": "address",
          "name": "to",
          "type": "address"
        },
        {
          "internalType": "uint256",
          "name": "tokenId",
          "type": "uint256"
        },
        {
          "internalType": "bytes",
          "name": "data",
          "type": "bytes"
        }
      ],
      "name": "safeTransferFrom",
      "outputs": [],
      "stateMutability": "nonpayable",
      "type": "function"
    },
    {
      "inputs": [
        {
          "internalType": "address",
          "name": "operator",
          "type": "address"
        },
        {
          "internalType": "bool",
          "name": "approved",
          "type": "bool"
        }
      ],
      "name": "setApprovalForAll",
      "outputs": [],
      "stateMutability": "nonpayable",
      "type": "function"
    },
    {
      "inputs": [
        {
          "internalType": "bytes4",
          "name": "interfaceId",
          "type": "bytes4"
        }
      ],
      "name": "supportsInterface",
      "outputs": [
        {
          "internalType": "bool",
          "name": "",
          "type": "bool"
        }
      ],
      "stateMutability": "view",
      "type": "function"
    },
    {
      "inputs": [],
      "name": "symbol",
      "outputs": [
        {
          "internalType": "string",
          "name": "",
          "type": "string"
        }
      ],
      "stateMutability": "view",
      "type": "function"
    },
    {
      "inputs": [
        {
          "internalType": "uint256",
          "name": "tokenId",
          "type": "uint256"
        }
      ],
      "name": "tokenURI",
      "outputs": [
        {
          "internalType": "string",
          "name": "",
          "type": "string"
        }
      ],
      "stateMutability": "view",
      "type": "function"
    },
    {
      "inputs": [
        {
          "internalType": "address",
          "name": "from",
          "type": "address"
        },
        {
          "internalType": "address",
          "name": "to",
          "type": "address"
        },
        {
          "internalType": "uint256",
          "name": "tokenId",
          "type": "uint256"
        }
      ],
      "name": "transferFrom",
      "outputs": [],
      "stateMutability": "nonpayable",
      "type": "function"
    },
    {
      "inputs": [
        {
          "internalType": "address",
          "name": "newOwner",
          "type": "address"
        }
      ],
      "name": "transferOwnership",
      "outputs": [],
      "stateMutability": "nonpayable",
      "type": "function"
    }
  ],
  "bytecode": "0x610180604052604561010081815260809182919062001a9861012039815260200160405180608001604052806045815260200162001a5360459139815260200160405180608001604052806044815260200162001a0f60449139815260200160405180608001604052806044815260200162001add6044913990526200008a90600d90600462000106565b503480156200009857600080fd5b506040518060400160405280600b81526020016a121bd9ddd85c9d1cd3919560aa1b81525060405180604001604052806002815260200161048560f41b8152508160009081620000e9919062000282565b506001620000f8828262000282565b50506000600c55506200034e565b82805482825590600052602060002090810192821562000151579160200282015b8281111562000151578251829062000140908262000282565b509160200191906001019062000127565b506200015f92915062000163565b5090565b808211156200015f5760006200017a828262000184565b5060010162000163565b5080546200019290620001f3565b6000825580601f10620001a3575050565b601f016020900490600052602060002090810190620001c39190620001c6565b50565b5b808211156200015f5760008155600101620001c7565b634e487b7160e01b600052604160045260246000fd5b600181811c908216806200020857607f821691505b6020821081036200022957634e487b7160e01b600052602260045260246000fd5b50919050565b601f8211156200027d57600081815260208120601f850160051c81016020861015620002585750805b601f850160051c820191505b81811015620002795782815560010162000264565b5050505b505050565b81516001600160401b038111156200029e576200029e620001dd565b620002b681620002af8454620001f3565b846200022f565b602080601f831160018114620002ee5760008415620002d55750858301515b600019600386901b1c1916600185901b17855562000279565b600085815260208120601f198616915b828110156200031f57888601518255948401946001909101908401620002fe565b50858210156200033e5787850151600019600388901b60f8161c191681555b5050505050600190811b01905550565b6116b1806200035e6000396000f3fe608060405234801561001057600080fd5b506004361061014d5760003560e01c806370a08231116100c3578063b88d4fde1161007c578063b88d4fde146102f8578063c87b56dd1461030b578063cd6542321461031e578063e28cb25a1461033e578063e985e9c51461036a578063f2fde38b1461037d57600080fd5b806370a0823114610288578063715018a61461029b5780638da5cb5b146102a357806395d89b41146102b4578063a22cb465146102bc578063a36f573b146102cf57600080fd5b806323b872dd1161011557806323b872dd146101e257806333975f94146101f557806338e21cce1461020857806342842e0e1461022b5780634a4b36c21461023e5780636352211e1461027557600080fd5b806301ffc9a71461015257806306fdde031461017a578063081812fc1461018f578063095ea7b3146101ba5780631e576912146101cf575b600080fd5b61016561016036600461113e565b610390565b60405190151581526020015b60405180910390f35b6101826103bb565b60405161017191906111ab565b6101a261019d3660046111be565b61044d565b6040516001600160a01b039091168152602001610171565b6101cd6101c83660046111f3565b610476565b005b6101cd6101dd3660046112a9565b610485565b6101cd6101f0366004611314565b6105b5565b610182610203366004611350565b610640565b610165610216366004611350565b600a6020526000908152604090205460ff1681565b6101cd610239366004611314565b6106da565b61026761024c366004611350565b6001600160a01b031660009081526009602052604090205490565b604051908152602001610171565b6101a26102833660046111be565b6106fa565b610267610296366004611350565b610705565b6101cd61074d565b6007546001600160a01b03166101a2565b610182610761565b6101cd6102ca36600461136b565b610770565b6101a26102dd3660046111be565b6008602052600090815260409020546001600160a01b031681565b6101cd6103063660046113a7565b61077b565b6101826103193660046111be565b610792565b61026761032c366004611350565b60096020526000908152604090205481565b61016561034c366004611350565b6001600160a01b03166000908152600a602052604090205460ff1690565b610165610378366004611423565b6108a3565b6101cd61038b366004611350565b6108d1565b60006001600160e01b03198216632483248360e11b14806103b557506103b58261090f565b92915050565b6060600080546103ca90611456565b80601f01602080910402602001604051908101604052809291908181526020018280546103f690611456565b80156104435780601f1061041857610100808354040283529160200191610443565b820191906000526020600020905b81548152906001019060200180831161042657829003601f168201915b5050505050905090565b60006104588261095f565b506000828152600460205260409020546001600160a01b03166103b5565b610481828233610998565b5050565b61048d6109a5565b6001600160a01b0383166000908152600a602052604090205460ff16156104fb5760405162461bcd60e51b815260206004820152601760248201527f596f75206861766520616c7265616479206d696e74656400000000000000000060448201526064015b60405180910390fd5b600c5461050884826109d2565b6001600160a01b0384166000908152600960209081526040808320869055600b909152902061053783826114de565b506001600c600082825461054b919061159e565b90915550506001600160a01b0384166000908152600a602052604090819020805460ff19166001179055517ffe281bcdb072dfbddfafb1763ee8ba9b91ba790715c617af593493fe865ac737906105a7908590879086906115bf565b60405180910390a150505050565b6001600160a01b0382166105df57604051633250574960e11b8152600060048201526024016104f2565b60006105ec8383336109ec565b9050836001600160a01b0316816001600160a01b03161461063a576040516364283d7b60e01b81526001600160a01b03808616600483015260248201849052821660448201526064016104f2565b50505050565b600b602052600090815260409020805461065990611456565b80601f016020809104026020016040519081016040528092919081815260200182805461068590611456565b80156106d25780601f106106a7576101008083540402835291602001916106d2565b820191906000526020600020905b8154815290600101906020018083116106b557829003601f168201915b505050505081565b6106f58383836040518060200160405280600081525061077b565b505050565b60006103b58261095f565b60006001600160a01b038216610731576040516322718ad960e21b8152600060048201526024016104f2565b506001600160a01b031660009081526003602052604090205490565b6107556109a5565b61075f6000610ae5565b565b6060600180546103ca90611456565b610481338383610b37565b6107868484846105b5565b61063a84848484610bd6565b606061079d8261095f565b50600082815260066020526040812080546107b790611456565b80601f01602080910402602001604051908101604052809291908181526020018280546107e390611456565b80156108305780601f1061080557610100808354040283529160200191610830565b820191906000526020600020905b81548152906001019060200180831161081357829003601f168201915b50505050509050600061084e60408051602081019091526000815290565b90508051600003610860575092915050565b81511561089257808260405160200161087a9291906115f2565b60405160208183030381529060405292505050919050565b61089b84610cff565b949350505050565b6001600160a01b03918216600090815260056020908152604080832093909416825291909152205460ff1690565b6108d96109a5565b6001600160a01b03811661090357604051631e4fbdf760e01b8152600060048201526024016104f2565b61090c81610ae5565b50565b60006001600160e01b031982166380ac58cd60e01b148061094057506001600160e01b03198216635b5e139f60e01b145b806103b557506301ffc9a760e01b6001600160e01b03198316146103b5565b6000818152600260205260408120546001600160a01b0316806103b557604051637e27328960e01b8152600481018490526024016104f2565b6106f58383836001610d74565b6007546001600160a01b0316331461075f5760405163118cdaa760e01b81523360048201526024016104f2565b610481828260405180602001604052806000815250610e7a565b6000828152600260205260408120546001600160a01b0390811690831615610a1957610a19818486610e91565b6001600160a01b03811615610a5757610a36600085600080610d74565b6001600160a01b038116600090815260036020526040902080546000190190555b6001600160a01b03851615610a86576001600160a01b0385166000908152600360205260409020805460010190555b60008481526002602052604080822080546001600160a01b0319166001600160a01b0389811691821790925591518793918516917fddf252ad1be2c89b69c2b068fc378daa952ba7f163c4a11628f55a4df523b3ef91a4949350505050565b600780546001600160a01b038381166001600160a01b0319831681179093556040519116919082907f8be0079c531659141344cd1fd0a4f28419497f9722a3daafe3b4186f6b6457e090600090a35050565b6001600160a01b038216610b6957604051630b61174360e31b81526001600160a01b03831660048201526024016104f2565b6001600160a01b03838116600081815260056020908152604080832094871680845294825291829020805460ff191686151590811790915591519182527f17307eab39ab6107e8899845ad3d59bd9653f200f220920489ca2b5937696c31910160405180910390a3505050565b6001600160a01b0383163b1561063a57604051630a85bd0160e11b81526001600160a01b0384169063150b7a0290610c18903390889087908790600401611621565b6020604051808303816000875af1925050508015610c53575060408051601f3d908101601f19168201909252610c509181019061165e565b60015b610cbc573d808015610c81576040519150601f19603f3d011682016040523d82523d6000602084013e610c86565b606091505b508051600003610cb457604051633250574960e11b81526001600160a01b03851660048201526024016104f2565b805181602001fd5b6001600160e01b03198116630a85bd0160e11b14610cf857604051633250574960e11b81526001600160a01b03851660048201526024016104f2565b5050505050565b6060610d0a8261095f565b506000610d2260408051602081019091526000815290565b90506000815111610d425760405180602001604052806000815250610d6d565b80610d4c84610ef5565b604051602001610d5d9291906115f2565b6040516020818303038152906040525b9392505050565b8080610d8857506001600160a01b03821615155b15610e4a576000610d988461095f565b90506001600160a01b03831615801590610dc45750826001600160a01b0316816001600160a01b031614155b8015610dd75750610dd581846108a3565b155b15610e005760405163a9fbf51f60e01b81526001600160a01b03841660048201526024016104f2565b8115610e485783856001600160a01b0316826001600160a01b03167f8c5be1e5ebec7d5bd14f71427d1e84f3dd0314c0f7b2291e5b200ac8c7c3b92560405160405180910390a45b505b5050600090815260046020526040902080546001600160a01b0319166001600160a01b0392909216919091179055565b610e848383610f88565b6106f56000848484610bd6565b610e9c838383610fed565b6106f5576001600160a01b038316610eca57604051637e27328960e01b8152600481018290526024016104f2565b60405163177e802f60e01b81526001600160a01b0383166004820152602481018290526044016104f2565b60606000610f0283611050565b600101905060008167ffffffffffffffff811115610f2257610f2261121d565b6040519080825280601f01601f191660200182016040528015610f4c576020820181803683370190505b5090508181016020015b600019016f181899199a1a9b1b9c1cb0b131b232b360811b600a86061a8153600a8504945084610f5657509392505050565b6001600160a01b038216610fb257604051633250574960e11b8152600060048201526024016104f2565b6000610fc0838360006109ec565b90506001600160a01b038116156106f5576040516339e3563760e11b8152600060048201526024016104f2565b60006001600160a01b0383161580159061089b5750826001600160a01b0316846001600160a01b03161480611027575061102784846108a3565b8061089b5750506000908152600460205260409020546001600160a01b03908116911614919050565b60008072184f03e93ff9f4daa797ed6e38ed64bf6a1f0160401b831061108f5772184f03e93ff9f4daa797ed6e38ed64bf6a1f0160401b830492506040015b6d04ee2d6d415b85acef810000000083106110bb576d04ee2d6d415b85acef8100000000830492506020015b662386f26fc1000083106110d957662386f26fc10000830492506010015b6305f5e10083106110f1576305f5e100830492506008015b612710831061110557612710830492506004015b60648310611117576064830492506002015b600a83106103b55760010192915050565b6001600160e01b03198116811461090c57600080fd5b60006020828403121561115057600080fd5b8135610d6d81611128565b60005b8381101561117657818101518382015260200161115e565b50506000910152565b6000815180845261119781602086016020860161115b565b601f01601f19169290920160200192915050565b602081526000610d6d602083018461117f565b6000602082840312156111d057600080fd5b5035919050565b80356001600160a01b03811681146111ee57600080fd5b919050565b6000806040838503121561120657600080fd5b61120f836111d7565b946020939093013593505050565b634e487b7160e01b600052604160045260246000fd5b600067ffffffffffffffff8084111561124e5761124e61121d565b604051601f8501601f19908116603f011681019082821181831017156112765761127661121d565b8160405280935085815286868601111561128f57600080fd5b858560208301376000602087830101525050509392505050565b6000806000606084860312156112be57600080fd5b6112c7846111d7565b925060208401359150604084013567ffffffffffffffff8111156112ea57600080fd5b8401601f810186136112fb57600080fd5b61130a86823560208401611233565b9150509250925092565b60008060006060848603121561132957600080fd5b611332846111d7565b9250611340602085016111d7565b9150604084013590509250925092565b60006020828403121561136257600080fd5b610d6d826111d7565b6000806040838503121561137e57600080fd5b611387836111d7565b91506020830135801515811461139c57600080fd5b809150509250929050565b600080600080608085870312156113bd57600080fd5b6113c6856111d7565b93506113d4602086016111d7565b925060408501359150606085013567ffffffffffffffff8111156113f757600080fd5b8501601f8101871361140857600080fd5b61141787823560208401611233565b91505092959194509250565b6000806040838503121561143657600080fd5b61143f836111d7565b915061144d602084016111d7565b90509250929050565b600181811c9082168061146a57607f821691505b60208210810361148a57634e487b7160e01b600052602260045260246000fd5b50919050565b601f8211156106f557600081815260208120601f850160051c810160208610156114b75750805b601f850160051c820191505b818110156114d6578281556001016114c3565b505050505050565b815167ffffffffffffffff8111156114f8576114f861121d565b61150c816115068454611456565b84611490565b602080601f83116001811461154157600084156115295750858301515b600019600386901b1c1916600185901b1785556114d6565b600085815260208120601f198616915b8281101561157057888601518255948401946001909101908401611551565b508582101561158e5787850151600019600388901b60f8161c191681555b5050505050600190811b01905550565b808201808211156103b557634e487b7160e01b600052601160045260246000fd5b8381526001600160a01b03831660208201526060604082018190526000906115e99083018461117f565b95945050505050565b6000835161160481846020880161115b565b83519083019061161881836020880161115b565b01949350505050565b6001600160a01b03858116825284166020820152604081018390526080606082018190526000906116549083018461117f565b9695505050505050565b60006020828403121561167057600080fd5b8151610d6d8161112856fea2646970667358221220b6d0a4a65d1c4b9b4592cfe9b1e073b705f61183e4490d87e53762b52ad60f5b64736f6c63430008140033697066733a2f2f516d586a613251424b734e5739716e77396b4b66636d3235724a546f6d7741564a557258656b59464a6e567762672f526176656e636c61772e6a736f6e697066733a2f2f516d586a613251424b734e5739716e77396b4b66636d3235724a546f6d7741564a557258656b59464a6e567762672f487566666c65707566662e6a736f6e697066733a2f2f516d586a613251424b734e5739716e77396b4b66636d3235724a546f6d7741564a557258656b59464a6e567762672f4772796666696e646f722e6a736f6e697066733a2f2f516d586a613251424b734e5739716e77396b4b66636d3235724a546f6d7741564a557258656b59464a6e567762672f536c7974686572696e2e6a736f6e",
  "linkReferences": {},
  "deployedLinkReferences": {}
}